:020000040800F2
:1000000060C10120C10100088D2500089D01000884
:1000100089250008991500088D610008000000007E
:10002000000000000000000000000000D3010008F4
:100030005B1D000800000000692D0008B959000888
:10004000DB010008DB010008DB0100087136000855
:10005000DB010008DB010008DB010008DB01000810
:10006000DB010008DB010008DB010008DB01000800
:10007000DB010008DB010008DB010008DB010008F0
:10008000DB010008DB010008DB010008DB010008E0
:10009000DB010008DB010008DB010008DB010008D0
:1000A000DB010008DB010008DB010008DB010008C0
:1000B000255A0008DB010008DB010008DB0100080D
:1000C000DB010008DB010008DB010008DB010008A0
:1000D000DB010008395F0008DB0100085D5F0008F4
:1000E0005D1D00084D300008DB010008DB01000841
:1000F000DB010008DB010008DB010008DB01000870
:10010000DB010008153D0008DB010008DB010008E9
:10011000DB010008DB010008DB010008DB0100084F
:10012000DB010008651A0008DB010008DB0100089C
:10013000DB010008DB010008DB010008DB0100082F
:10014000DB010008DB010008DB010008DB0100081F
:10015000DB010008DB010008DB010008DB0100080F
:10016000DB010008DB010008DB010008DB010008FF
:10017000DB010008DB01000899190008DB01000819
:10018000DB010008DB010008DFF80CD000F0F0FE16
:1001900000480047CD89000860C101201EF0040F0F
:1001A0000CBFEFF30880EFF3098008F0FBB9000003
:1001B00030BF72B6704762B6704780F308887047E8
:1001C0000648804706480047FEE7FEE7FEE7FEE7F1
:1001D000FEE7FEE7FEE7FEE7FEE7FEE7BD590008A3
:1001E000890100082DE9F0410024061B254671F124
:1001F000000605DA01240027D0EB070067EB0101B8
:10020000161E73F1000605DA0027D2EB070201255E
:1002100067EB030300F021FA86460E4617469C461C
:10022000AC4204D00025D0EB050E65EB010624B1ED
:100230000020D2EB000760EB030C704631463A46D3
:100240006346BDE8F08140EA01039B0703D009E063
:1002500008C9121F08C0042AFAD203E011F8013BB2
:1002600000F8013B521EF9D27047D2B201E000F80B
:10027000012B491EFBD270470022F6E710B513464A
:100280000A4604461946FFF7F0FF204610BD30B578
:1002900005462A460B4612F8010B13F8014B08B12C
:1002A000A042F8D01CB1002802D06D1CF1E728460E
:1002B00030BD421C10F8011B0029FBD1801A704789
:1002C0000FB400B58DB010A909900B9000914FF0BC
:1002D000FF300A9000200C900548069005480790D2
:1002E0006A4609A80F9900F081FD0DB05DF814FB76
:1002F000090E0008270E00082DE9FE4F804681EA0E
:100300000300C00F0C46009021F0004123F000458F
:10031000B8EB0200A94105D24046214690461C4652
:100320000B46024623F00040104347D0270DC7F389
:100330000A00C3F30A510290401A019040286BDA78
:10034000C3F3130040F4801B0098924620B10023B1
:10035000D2EB030A63EB0B0B01985946C0F1400244
:10036000504600F0ABF906460D4650465946019AF4
:1003700000F0B3F910EB08006141002487EA115244
:1003800084EAE7731A4340D0009A62B3019A012AC3
:100390004FEA075215DC001B61EB02014FF00042EF
:1003A00002EA0752CDE90042001C41F580113246B5
:1003B0002B4600F08FFD03B0BDE8F08F404621468C
:1003C000F9E7001B61EB0201001C41F580130018E6
:1003D0005B412018A2F5001747EB030140EAD570F6
:1003E000B6196D4111E06D084FEA360645EAC07551
:1003F0004FEA0752001B61EB0201001C41F580111E
:1004000049084FEA30000019514132462B4603B0EB
:10041000BDE8F04F00F04FBD0098012240000023DE
:10042000D0EB020263EBE073009821464FEAE074E0
:10043000B8EB000061EB0401E9E783F000435BE700
:1004400081F0004158E72DE9FE4F81EA030404F0F2
:10045000004421F0004100944FF0000B23F00043D2
:1004600050EA01045ED052EA03045BD0C3F30A549D
:10047000C1F30A552C44A4F2F3340194A0FB0254B6
:10048000C1F3130141F48011C3F3130343F4801348
:1004900001FB024400FB034E840A970A44EA81549C
:1004A00047EA8357A4FB076802958D0A05FB078579
:1004B0004FEA932C04FB0C542705029D4FEA065883
:1004C00047EA1637B5EB08056EEB070C870E920E60
:1004D00047EA811742EA8312A7FB0201B6EB0B0140
:1004E00064EB00042B0D43EA0C335E1844EB1C5004
:1004F000DA465146E7FB0201C5F313044FEA0B331A
:1005000043EA14534FEA0432019C43EA0603A4F180
:100510000C040294009CCDE900B400F0DBFC03B0B5
:10052000BDE8F08F00200146F9E72DE9F04D81EAA2
:10053000030404F0004B21F0004514464FF0000A7C
:1005400023F0004150EA050220D054EA01021DD0F8
:10055000C5F30A570246C5F31303C1F31300C1F3F1
:100560000A5640F4801543F48013A7EB0608101BCD
:10057000D64608F2FD3873EB050002D308F10108F6
:1005800001E092185B41B8F1000F03DA0020014648
:10059000BDE8F08D00204FF48011064684460EE041
:1005A000171B73EB050705D3121B63EB050306430B
:1005B0004CEA010C49084FEA300092185B4150EABE
:1005C0000107EDD152EA030012D082EA040083EA67
:1005D0000501084305D0101BAB4106D201220023C0
:1005E00006E000224FF0004302E06FF001025310DA
:1005F0001AEB06004CEB085110EB0A0041EB0B0123
:10060000BDE8F04D00F057BC0EB540F23341029109
:100610000021CDE900110A460B4600F05BFC03B057
:1006200000BD01F0004330B421F0004150EA010266
:1006300006D00A0DA2F56072C1F31301002A02DC94
:1006400030BC00207047440F44EAC104C100E018E8
:1006500030BC00EBC25000F0F7BB2DE9F05F05465F
:10066000002092469B4688460646814640241BE071
:10067000284641464746224600F08CFC53465A46DF
:10068000C01A914110D311461846224600F016F8C0
:100690002D1A67EB01084F4622460120002100F089
:1006A0000DF817EB00094E41201EA4F10104DFDC18
:1006B000484631462A464346BDE8F09F202A04DBDF
:1006C000203A00FA02F1002070479140C2F1200365
:1006D00020FA03F3194390407047202A06DBCB171A
:1006E000203A41FA02F043EAE07306E041FA02F3ED
:1006F000D040C2F1200291400843194670472DE9CD
:10070000FF4F1C4681B00021D4E9016791464FF0AC
:10071000FF358A468846A1696D1C02988847216A80
:10072000834688470028F6D1BBF1FF3F0CD026F462
:10073000C066002F1ADD700615D5BBF12B0F0AD04D
:10074000BBF12D0F0FD104E04FF0FF3005B0BDE835
:10075000F08F46F48066A1696D1C029888477F1E61
:100760008346002F02DDBBF1300F03D0B9F1000F3B
:100770002AD025E0A1696D1C46F400767F1E029800
:1007800088478346002F05DDBBF1780F06D0BBF10B
:10079000580F03D0B9F1000F10D011E0B9F1000FDC
:1007A00002D0B9F1100F0BD1A1696D1C26F40076AF
:1007B0007F1E029888478346102000E0082081466B
:1007C0004FEAE970009017E00A20F8E74346AAFBD9
:1007D000092803FB0980DDF800C07F1E0AFB0C011D
:1007E00012EB0B0A41EBEB78A16946F4007605F1B8
:1007F0000105029888478346002F06DD4946584682
:1008000000F0DDFB5FEA000BE0D5E1690298884764
:10081000B00502D46FF0010098E7F00718D1700618
:1008200010D57005514605D50023D1EB030163EBCC
:10083000080200E042462068031D23600068C0E90A
:10084000001205E02068011D21600068C0E900A8D1
:1008500028467BE72DE9FF5F1D464FF0FF3BD5E9BA
:10086000014691465F464FF00008A9697F1C019838
:100870008847296A824688470028F6D1BAF1FF3FA7
:100880000CD024F4C064002E19DD600614D5BAF132
:100890002B0F09D0BAF12D0F0ED103E0584604B04A
:1008A000BDE8F09F44F48064A9697F1C01988847E3
:1008B000761E8246002E02DDBAF1300F03D0B9F168
:1008C000000F26D032E0A969761E44F400747F1C24
:1008D000019888478246002E05DDBAF1780F06D0D0
:1008E000BAF1580F03D0B9F1000F10D01EE0B9F1E2
:1008F000000F02D0B9F1100F18D1A969761E24F4A7
:1009000000747F1C019888478246102002E008206E
:1009100000E00A20814609E008FB0908A969761E63
:1009200044F400747F1C019888478246002E05DD40
:100930004946504600F043FB0028EDDAE96901988A
:100940008847A00502D46FF00100A8E7E00725D191
:10095000600613D5600502D5C8F1000000E04046EE
:1009600029680A1D2A600968220501D5087015E06A
:10097000220701D5088011E008600FE02868011DFA
:1009800029600068210502D580F8008006E0210773
:1009900002D5A0F8008001E0C0F8008038467EE76C
:1009A0002DE9FF5FD2E901A74FF000089169994650
:1009B0001446DDF838B0464601988847054659EA9E
:1009C0000B0005D009E0A169761C0198884705460F
:1009D000216A284688470028F5D1681C03D05FEAC1
:1009E000CA7005D015E04FF0FF3004B0BDE8F09FAD
:1009F0002068011D2160D0F800800AE05FEACA701B
:100A000001D108F8015BA169761C7F1E0198884717
:100A10000546002F1ADD681C18D0B9F1000F0DD063
:100A2000E81705EBD060421120F01F0059F82210A2
:100A30002A1A012090400142E0D107E0BBF1000FEB
:100A4000DCD1216A284688470028D7D0E16901987F
:100A50008847BBF1000F07D1002E05DD5FEACA70A1
:100A600002D1002188F80010A068B84203DDBBF174
:100A7000000F03D017B16FF00100B6E73046B4E7BE
:100A80002DE9FF4F087883B09946FF2805D0491C0F
:100A90002D2804D00024002008E000200BE00124D1
:100AA000F9E700EB800003EB4000491C0B78FF2BBB
:100AB000F7D104B1404200230293147819461D4631
:100AC0002D2C01D02B2C04D1521C2D2C13D0002402
:100AD0000294AA461478FF2C0FD00A25A3FB0578B0
:100AE00001FB05814FF0000C03FB0C11521CE319B4
:100AF0004AEB0101EEE70124EAE7814453EA0100F1
:100B000002D019F5C87F06DA03980021C0E9001168
:100B100007B0BDE8F08F0025AE4E2F46DFF8B88253
:100B2000184600F0F1FBCDE90001B9F1000002DA4E
:100B3000C9F1000400E004460023A74A1AEB030BA6
:100B400042EB045A12E0E00707D02A463346384603
:100B50004146FFF778FC074688462A46334610464A
:100B60001946FFF770FC05460E466410002CEAD1CA
:100B7000DDE90001B9F1000F5A46534606DAFFF7E6
:100B8000D4FC3A464346FFF7D0FC05E0FFF75BFC98
:100B90003A464346FFF757FC029A0AB181F00041FA
:100BA000039AC2E90001B3E72DE9FF4F1F468DB05C
:100BB000D7E901464FF0FF382E2045464FF0000997
:100BC0000B90B9696D1C0E988847396A8246884730
:100BD0000028F6D1BAF1FF3F0AD024F4D064002EE9
:100BE00011DDBAF12B0F08D0BAF12D0F0BD102E0B5
:100BF000404611B08DE744F48064B9696D1C0E98CD
:100C000088478246761E6946600501D52D2000E0A2
:100C10002B208DF8000001F1010B0DF1200809E0F7
:100C2000B9696D1C0E98884782460F9844F4007489
:100C3000761E0560002E02DDBAF1300FF0D00B9960
:100C40008A453ED144F0800406E00F99681CA9F162
:100C5000010944F400740860B9696D1C761E0E9891
:100C6000884782463028F0D02BE00B998A4505D181
:100C7000200603D444F08004761E18E0504605F0A8
:100C8000CCFA08B30DF11301761E44F400748B45C1
:100C900008D2AAF130000BF8010B200607D5A9F104
:100CA000010003E0200602D409F101008146A005FD
:100CB00002D50F99681C0860B9696D1C0E988847A9
:100CC0008246002ED1DC53E0002E51DDBAF1650FD3
:100CD00002D0BAF1450F4BD1A00549D5B9696D1CB9
:100CE00024F44074761E0E9888478246002E0CDD50
:100CF0002B2804D0BAF12D0F07D144F48074B969C0
:100D00006D1C0E9888478246761EE00501D52D2180
:100D100000E02B2108F8011BCDF82C8021E00DF11B
:100D20002901761E44F4007488450CD2AAF13000E3
:100D300010F0FF0088F8000002D10B99884509D90E
:100D400008F1010806E0E00501D5244801E042F27F
:100D50000F708146B9696D1C0E98884782460F98BE
:100D60000560002E04DD504605F057FA0028D6D164
:100D7000F9690E988847FF208BF8000088F800007A
:100D80000020069007904B466A4608A906A8FFF780
:100D900077FEA00502D46FF001002AE714F0240FBB
:100DA0000AD0E00714D1DDE906123868031D3B6064
:100DB0000068C0E900120BE0DDE90601FFF731FC35
:100DC0000146E00704D13868021D3A6000680160FE
:100DD00028460EE7000014400000F03FF1D8FFFF66
:100DE000026811441378016018467047D1600449C5
:100DF00051610449116200211161114600F0EEB801
:100E0000E10D0008B50F0008426842B1016811F811
:100E1000013B23B1521EC0E9001218467047012160
:100E2000C160881E704742685AB1C368016843B9FF
:100E300083688B4205D0491E521CC0E90012002075
:100E400070474FF0FF3070470029A8BF7047401C23
:100E5000490008BF20F00100704710B4B0FA80FCD0
:100E600000FA0CF050EA010404BF10BC704749B10D
:100E7000CCF1200421FA04F411FA0CF118BF01217D
:100E800021430843A3EB0C01CB1D4FEA00614FEA5D
:100E9000102042BF002010BC704700EBC35010442C
:100EA0000029A4BF10BC7047401C490008BF20F0B7
:100EB000010010BC704710B5141E73F1000408DA6D
:100EC000401C41F1000192185B411A4301D120F00E
:100ED000010010BD2DE9F04D92469B4611B1B1FACB
:100EE00081F202E0B0FA80F220329046FFF7E6FB92
:100EF00004460F4640EA0A0041EA0B0153465A46AF
:100F0000084313D0114653EA010019D0C8F140023A
:100F1000504600F03FF805460E46504659464246B8
:100F2000FFF7CCFB084305D0012004E020463946FA
:100F3000BDE8F08D0020054346EAE0762C433743B8
:100F40000A986305E40AA0EB08000022FD0A44EABF
:100F500047540A3002D500200146E9E7010510197F
:100F60006941DDE9084500196941BDE8F04DA2E796
:100F7000064C074D06E0E06840F0010394E80700E6
:100F800098471034AC42F6D3FFF702F960460308E5
:100F900080460308202A04DB203A21FA02F00021CF
:100FA000704721FA02F3D040C2F120029140084379
:100FB00019467047C0B24FF4F05100F0B1B93A2869
:100FC00000D2303820F02002412A01D3A2F13700AC
:100FD000884201D34FF0FF30704700002DE9F34FF6
:100FE0008BB04FF0000801F10C000C464FF0010BE4
:100FF00046460DF1080A0190626901210198904767
:10100000051E2DD0252D2CD0216A8847C0B16269DC
:10101000012101989047216A88470028F7D1411E95
:1010200062690198904700E0761CA1690B98884797
:10103000216A88470028F7D1E1690B988847DBE7E8
:10104000A1690B9888470746A84201D1761CD3E7CF
:10105000E1690B9888477F1C02D1B8F1000F6FD06F
:1010600046E1002762693D463946019890472A28A3
:1010700004D162690121019890470125DFF884922B
:101080006269012101989047A0F130010A290AD232
:101090004F45E5DC07EB870100EB4107303FDFD42C
:1010A00045F01005ECE7E90601D46FF000476C2825
:1010B0000AD04C2814D0682815D06A280DD074287E
:1010C0001CD07A281AD01DE062690121019890474E
:1010D0006C2802D045F0040514E045F002050DE04F
:1010E00045F020050AE062690121019890476828CF
:1010F00002D045F0080505E045F40065626901216C
:1011000001989047C4E9015765283DD019DC58285B
:101110007AD00CDC452837D004DC252826D041289D
:1011200031D131E046282FD047282CD12CE05B2844
:1011300077D0612828D063287CD0642823D15AE056
:10114000D0E06F2848D008DC66281DD067281BD067
:10115000692821D06E2816D127E0702845D0732841
:1011600068D0752847D078280DD14DE0A1690B983B
:101170008847054625283FF469AFE1690B98884701
:101180006D1C3FF46AAFB3E023466A466FF001007E
:101190000B99FFF709FD9EE045F040006060A8074D
:1011A00023464FF0000236D43EE0E8077FF447AF15
:1011B0002068011D21600068290501D506701BE724
:1011C000290701D5068017E7A90703D5F117C0E95C
:1011D000006111E706600FE745F040006060A80776
:1011E00023464FF0080216D41EE040F60E0125EA11
:1011F0000100606016E045F040006060A8072346EB
:101200004FF00A0207D40FE045F040006060A807E5
:1012100008D5234610226FF001000B99FFF76FFAF3
:1012200059E007E0234610226FF001000B99FFF709
:1012300011FB50E04FF000094F464B46632802D0A7
:101240005B2806D040E0E80601D40120A060012719
:101250003AE062690121019890475E2805D14FF07C
:1012600001096269494601989047216939B900210D
:101270000A46534643F82120491C0829FADBB0B33B
:10128000216969B9C11700EBD16253110AEB8301DF
:1012900022F01F02821A01200B68904003430B606A
:1012A00062690121019890475D28E8D1B9F1000FEA
:1012B00009D00020514651F82020D24341F8202087
:1012C000401C0828F7DB02AB224600976FF00100B4
:1012D0000B99FFF765FB00280CDA401C08D1BBF125
:1012E000000F05D04FF0FF300DB0BDE8F08FFFE7E5
:1012F0004046F9E7E90701D108F1010806444FF03B
:10130000000B79E6CCCCCC0C0EB540F23342029205
:101310000022CDE900221346FFF7DCFD03B000BD3B
:101320007F2801D9002208E0064A02EB5002C007DC
:10133000127800D1120902F00F02012090400840FB
:1013400070470000C04503082DE9F04198B00546FC
:1013500000206C4908602846FEF7ABFF06460020D7
:101360001790169015901490139000BF664800686F
:1013700000B91AE007F08CFC4FF47A71B0FBF1F27F
:1013800001FB120707F084FC4FF47A71B0FBF1F80F
:101390003A4641465DA004F00DFF29465FA004F0E7
:1013A00009FF61A004F006FF00BF00BF5FA128464F
:1013B000FEF76DFF00B9A2E0402103A8FEF75CFF35
:1013C0005BA207CA03AB07C300BF4F48006800B960
:1013D0001AE007F05DFC4FF47A71B0FBF1F201FB0B
:1013E000120707F055FC4FF47A71B0FBF1F83A465A
:1013F000414646A004F0DEFE314651A004F0DAFE7C
:1014000049A004F0D7FE00BF00BF002410E0285D13
:101410002C280CD1701EA04209D903A8FEF749FF61
:1014200003A9084448A10A88028089788170641C55
:10143000B442ECD300BF3448006800B91AE007F0AA
:1014400027FC4FF47A71B0FBF1F201FB120707F0B1
:101450001FFC4FF47A71B0FBF1F83A4641462BA0DD
:1014600004F0A8FE03A939A004F0A4FE2EA004F005
:10147000A1FE00BF00BF13A814A915AA16ABCDE9A1
:101480000021029017AA03A92846FEF719FF31464A
:101490002846FEF7F1FE00BF1B48006800B920E0B7
:1014A00007F0F6FB4FF47A71B0FBF1F201FB120783
:1014B00007F0EEFB4FF47A71B0FBF1F83A46414683
:1014C00012A004F077FEDDE91310CDE9000124A09D
:1014D000DDE91532179904F06DFE13A004F06AFEE1
:1014E00000BF00BF1798652808D1DDE91332DDE998
:1014F000151001F007FB18B0BDE8F08100BF4FF0F8
:10150000FF30F8E758000020640000205B443A20D8
:1015100025642E253033645D200000006461746111
:101520005F6275663D2573000D0A00003D000000F6
:1015300041542B636D644366673D256400000000E1
:101540006E6C656E3D2564002C256400766C5F46EC
:101550006F726D6174655374723D257300000000F5
:10156000766C5F436D6449643D25642C20766C5F26
:10157000547970653D25642C20766C5F50313D2593
:10158000642C20766C5F50323D25642C20766C5F95
:1015900050333D256400000000BFFEE770B52848C9
:1015A0000078002838D10021264800F087FA00BFD3
:1015B000244800F051FB0028FAD1224800F056FBE5
:1015C000C0F5A055204800682049096800EB810655
:1015D0001C48006800F4002058B1002406E01C48B4
:1015E000006850F8240046F82400641CAC42F6D38E
:1015F0000AE0002406E01748006850F8240046F886
:101600002400641CAC42F6D31048006828440F49FB
:10161000086001200A4908700948007802280DD1A5
:101620004FF4A051074800F096FB0121054800F057
:1016300045FA0020024908700449086070BD0000A6
:10164000BC00002028640240B0000020B800002048
:10165000AC000020A800002070B500254FF48034B5
:1016600004E0802002F042FB00B103E0201EA4F160
:101670000104F6D100BF0CB9032070BD40F2FF5049
:1016800002F00AFB2846F8E770B5044605E0164864
:10169000056805F0450000B100E0F8E700BF042050
:1016A00002F024FB20B1042002F0F6FA032070BD02
:1016B000012002F01BFB20B1012002F0EDFA012015
:1016C000F5E7094824380068A04201D01020EEE771
:1016D00040F2FF5002F0E0FA034820380068082189
:1016E0000840C0B2E3E70000342C014070B500268A
:1016F0004FF4803505E01148046804F0450000B15E
:1017000003E0281EA5F10105F5D100BF15B104F0D5
:10171000040028B10326042002F0BEFA304670BD52
:10172000012002F0E3FA18B10126012002F0B4FA18
:1017300040F2FF5002F0B0FA3046F0E7342C01409E
:1017400010B505E00B48046804F0450000B100E066
:10175000F8E700BF042002F0C9FA20B1042002F02B
:101760009BFA032010BD40F2FF5002F095FA0020D2
:10177000F8E70000342C01402DE9F04105460E4603
:101780004FF0000805E02048076807F0450000B169
:1017900000E0F8E700BF042002F0A8FA28B1042016
:1017A00002F07AFA0320BDE8F081012002F09EFAEF
:1017B00020B1012002F070FA0120F4E71248243829
:1017C0000068A84201D01020EDE740F2FF5002F07F
:1017D00063FA0D482038046804F4604018B9200CFE
:1017E00030804046DFE704F4005008B11320DAE708
:1017F00004F4804008B11020D5E704F4004008B19B
:101800000F20D0E74046CEE7342C014070B50026CB
:101810004FF4803505E00F48046804F0450000B13E
:1018200003E0281EA5F10105F5D100BF15B104F0B4
:10183000040028B10326042002F02EFA304670BDC1
:1018400004F0400018B10026402002F025FA30468E
:10185000F5E70000342C014030B10749096841F038
:101860000101054A116005E00349096821F0010101
:10187000014A1160704700000000055001494861AD
:10188000704700000000055030B10749096841F475
:101890008041054A116005E00349096821F480414F
:1018A000014A116070470000000005502DE9F04129
:1018B00090B004460D4616461F46DDF858800121BB
:1018C000880501F053FA244800F004F900BF2248CB
:1018D00000F0C2F90028FAD14FF0007001901F48C3
:1018E000029003940020049005960690CDF81C8089
:1018F0004FF480500890099700110A9040020B9015
:1019000004200C9003200D9000200E900F9001A950
:10191000114800F0EFF9E5B101210F4800F086F918
:101920004FF4002229460C4800F010FA0122102141
:10193000094800F0C1F939208DF8000000208DF829
:1019400001008DF8020001208DF80300684600F0C8
:101950001FFE10B0BDE8F081286402402800055049
:10196000002005490860C8601F2048610020886188
:10197000C8610862486270470000055001460020B7
:101980000022044B1B6903EA01020AB1012000E0B6
:10199000002070470000055010B50120FFF7EEFF52
:1019A000012809D1FFF7FAFD0120FFF767FF03487F
:1019B0000078401C0149087010BD00003E00002066
:1019C00029B1074AD2680243054BDA6006E0044AAF
:1019D000D268C3439BB21A40014BDA6070470000E3
:1019E0000000055000210E4A126844F201039A4398
:1019F0000B4B1A601A46116840F6F2729143028846
:101A000043881A4383881A43C3881A4303891A43B5
:101A100043891A4383891A431143014A116070476D
:101A20000000055010B50121034800F047F80120DF
:101A3000FFF712FF10BD00002864024010B500201F
:101A4000FFF70AFF00BF0548006800F0010000280A
:101A5000F9D10021024800F031F810BD0000055016
:101A60002864024010B50649064800F003F9012831
:101A700005D10349034800F007F805F0F9F910BD56
:101A800000080010286402400246094B9A4201D225
:101A9000084801E00648103801F000531BB1064B1E
:101AA0000B40C36002E0044B0B40836070470000B2
:101AB00010640240006002407D0F7D0F21B102687A
:101AC00042F00102026003E0026822F001020260BB
:101AD00070470000016821F00101016000210160F0
:101AE00041608160C1600161212141614A498842B0
:101AF00004D13D21484A103A91608CE046491831A2
:101B0000884205D14FF47461434A103A916082E0F3
:101B100041493031884205D14FF474113E4A103AA0
:101B2000916078E03C494831884205D14FF07461BA
:101B3000394A103A91606EE037496031884204D1E9
:101B40003649354A103AD16065E0334978318842E8
:101B500004D13349304A103AD1605CE02E499031CB
:101B6000884204D12F492C4A103AD16053E02A49C7
:101B7000A831884205D14FF03D51274A103AD16033
:101B800049E02949884204D13D21274A083A116099
:101B900041E025491831884205D14FF47461224A49
:101BA000083A116037E020493031884205D14FF4BE
:101BB00074111D4A083A11602DE01B4948318842D2
:101BC00005D14FF07461184A083A116023E01649B4
:101BD0006031884204D11149134A121F11601AE082
:101BE00011497831884204D10D490F4A121F116002
:101BF00011E00D499031884204D10A490A4A121F66
:101C0000116008E00849A831884204D14FF03D51E5
:101C1000054A121F11607047106002403D0000200D
:101C2000400F002000003D201064024021B10268F6
:101C300042F48022026003E0026822F48022026003
:101C4000704721B1026842F02002026003E002689E
:101C500022F0200202607047014600200A6802F06C
:101C600001020AB1012000E00020704701464868E7
:101C700080B2704730B503460A46002000240B4D61
:101C8000AB4201D20A4901E00849103902F000557F
:101C90000DB14C6800E00C68064D2C4004EA0205CA
:101CA0000DB1012000E0002030BD000010640240B2
:101CB000006002407D0F7D0F10B501F080034BB135
:101CC00022B1436943F08003436103E0436923F099
:101CD0008003436180290BD02AB1036801F01E0400
:101CE0002343036004E0036801F01E04A343036080
:101CF00010BD000010B500220268134B1A40CC68DA
:101D00000B6823434C6923438C692343CC692343E9
:101D10000C6A23434C6A23438C6A23434C6B234352
:101D20008C6B23431A430260426922F00702D1E917
:101D30000B3423431A4342610B6943604B68836051
:101D40008B68C36010BD00003F801CF00AB10161C8
:101D500000E0C160704741607047704770B50A206D
:101D600005F0C9F84FF40041254800F010FA10BB07
:101D700000BF2448006800B919E006F089FF4FF45D
:101D80007A71B0FBF1F201FB120406F081FF4FF40F
:101D90007A71B0FBF1F5224629461BA004F00AFA3D
:101DA0001DA004F007FA21A004F004FA00BF00BF50
:101DB00000F052FA1FE000BF1248006800B919E0B5
:101DC00006F066FF4FF47A71B0FBF1F201FB1204EA
:101DD00006F05EFF4FF47A71B0FBF1F5224629461A
:101DE00009A004F0E7F912A004F0E4F90FA004F050
:101DF000E1F900BF00BF4FF4004000F043F870BDB0
:101E000000000240640000205B493A2025642E2532
:101E10003033645D200000007364206361726420CD
:101E20007075736820696E21000000000D0A0000C3
:101E3000736420636172642070757368206F7574B9
:101E4000210000000EB50F21002003F0B1FB4FF47C
:101E50000040009000208DF8040010208DF805004F
:101E600001208DF80600684600F012F828208DF851
:101E7000080001208DF80A008DF80B0002A800F080
:101E800087FB0EBD0149086070470000143C01400B
:101E9000002123498279002A3AD00A461268036851
:101EA0009A430B461A600A1D126803689A430B1D79
:101EB0001A60027911440A6803681A430A60184AD2
:101EC0000832126803689A43154B08331A601A1DCA
:101ED000126803689A43124B0C331A604279102A35
:101EE0000ED11A1F126803681A430D4B08331A608B
:101EF0001A1D126803681A43094B0C331A600DE06F
:101F00000749427911440A6803681A430A6005E0E8
:101F1000027911440A6803689A430A607047000016
:101F2000003C01402DE9FC4107460D4600260024F7
:101F300000200090019008205B4908601020486054
:101F4000402088600020C8604FF480600861084627
:101F500001F018FF1020FFF797FB044614B120464C
:101F6000BDE8FC815148008800044F4908603720D3
:101F70004860402088600020C8604FF4806008619D
:101F8000084601F0FFFE3720FFF77EFB04460CB148
:101F90002046E5E74FF0FF304549086008204860DB
:101FA000302088600220C86000200861012048615C
:101FB000084601F081FE00203B490860332048605C
:101FC000402088600020C8604FF4806008610846A7
:101FD00001F0D8FE3320FFF757FB04460CB1204632
:101FE000BEE70CE04FF4001001F080FE38B131483C
:101FF00000684DF82600761C022E00D307E02D481D
:102000004C38006840F22A6108400028EAD000BF3E
:10201000082001F06BFE20B1082001F03DFE0420F5
:102020009EE7022001F062FE20B1022001F034FEA2
:10203000022095E7202001F059FE20B1202001F078
:102040002BFE06208CE74FF4007001F04FFE28B104
:102050004FF4007001F020FE072081E740F2FF50AE
:1020600001F01AFE00980006009901F47F4140EA51
:102070000120009901F47F0140EA1120009940EA13
:102080001160686001980006019901F47F4140EAFF
:102090000120019901F47F0140EA1120019940EAF1
:1020A0001160286020465BE74801002044000020C2
:1020B0005C010020802C0140F0B50A46002100237D
:1020C000002400BF3DE0012505FA01F3156805EA8B
:1020D00003049C4234D105684F000326BE40B5433B
:1020E000056015794E00B5400668354305601579E1
:1020F000012D02D01579022D16D185684F000326D7
:10210000BE40B543856055794E00B540866835437D
:102110008560456801268E40B543456045689679DF
:102120008E40B6B235434560C5684F000326BE40B9
:10213000B543C560D5794E00B540C6683543C56026
:10214000491C1029BFD3F0BDF0B5002300244D0772
:10215000ED0E02FA05F3CE1000F1200555F82650D9
:102160004E07F70E0F26BE40B543CF1000F12006F4
:1021700046F82750CE1000F1200555F8265045EAC4
:102180000304CE1000F1200545F82640F0BD0246BC
:10219000002013690B400BB1012000E000207047C4
:1021A0000AB1018300E04183704700004CF6CC4047
:1021B00001490860704700000030004010B500F091
:1021C00001F810BD4AF6AA200149086070470000D6
:1021D0000030004001494860704700000030004076
:1021E00001498860704700000030004001490860E4
:1021F00070470000003000402DE9F04704460326F8
:102200000327B0464FF004092546124800EB85002D
:102210004388104830F825200021084600F074FA61
:102220000C4A02EB850251880A4A32F8250000F078
:10223000E8FB404600F02EFA304600F026FC384617
:1022400000F008FA484600F0E9F9002000F09EFB93
:10225000BDE8F087984503087CB501F0ADFFF8B103
:1022600000BF7148006800B919E006F011FD4FF495
:102270007A71B0FBF1F201FB120406F009FD4FF494
:102280007A71B0FBF1F52246294668A003F092FF6F
:102290006AA003F08FFF6FA003F08CFF00BFC2E0C5
:1022A000002400BF6048006800B919E006F0F0FCA7
:1022B0004FF47A71B0FBF1F201FB120506F0E8FC75
:1022C0004FF47A71B0FBF1F62A46314657A003F07D
:1022D00071FF61A003F06EFF5EA003F06BFF00BF13
:1022E00000BF05F09FF962490122086861A105F06D
:1022F0006FFA23E000BF4C48006800B919E006F00F
:10230000C7FC4FF47A71B0FBF1F201FB120506F045
:10231000BFFC4FF47A71B0FBF1F62A46314643A078
:1023200003F048FF54A003F045FF4AA003F042FF2A
:1023300000BF00BF641C642004F0DDFD6A4601A9F3
:1023400055A005F04AF908B10A2CD3D30A2C66D25D
:1023500001205249087000BF3348006800B919E0F5
:1023600006F096FC4FF47A71B0FBF1F201FB120516
:1023700006F08EFC4FF47A71B0FBF1F62A46314636
:102380002AA003F017FF46A003F014FF31A003F0CA
:1023900011FF00BF00BF00BF2348006800B91BE069
:1023A00006F076FC4FF47A71B0FBF1F201FB1205F6
:1023B00006F06EFC4FF47A71B0FBF1F62A46314616
:1023C0001AA003F0F7FE0198810A38A003F0F2FE8C
:1023D00020A003F0EFFE00BF00BF00BF124800685E
:1023E00000B91BE006F054FC4FF47A71B0FBF1F237
:1023F00001FB120506F04CFC4FF47A71B0FBF1F6CC
:102400002A46314609A003F0D5FE0098810A2CA087
:1024100003F0D0FE0FA003F0CDFE00BF02E00020CD
:102420001E49087000BF7CBD640000205B493A2053
:1024300025642E253033645D200000003E20534487
:102440002053544F524147455F496E69742065726D
:10245000726F72000D0A00003E2053442053544F07
:10246000524147455F496E6974204F6B0000000080
:10247000FC070020303A000053442043617264207E
:102480004661746673204572726F722120726574A2
:1024900072792E2E2E000000300000004C0000202B
:1024A0004641544653204F4B2100000053442054D2
:1024B0006F74616C2053697A653A2564204D42003F
:1024C00053442020467265652053697A653A256435
:1024D000204D42001CB50446002001900090224887
:1024E00000880004214908600D2048604020886071
:1024F0000020C8604FF480600861084601F042FC8B
:102500001B480068009002E019480068009000989D
:1025100000F045000028F7D0012001F0E7FB20B1D2
:10252000012001F0B9FB01201CBD042001F0DEFBFD
:1025300020B1042001F0B0FB0320F5E70C4824385B
:1025400000680D2801D01020EEE740F2FF5001F0A6
:10255000A3FB07482038006801900198C0F343208E
:1025600020700020E0E70000440000204801002027
:10257000342C014010B50021084603F0AFF80021CB
:10258000012003F0ABF810BD00BFFEE7704700006C
:1025900070B5002100230F22C4781CB3174C2468A7
:1025A00004F4E064C4F5E064C4F30721C1F1040459
:1025B000E3B20A4144789C40E1B28478144021435C
:1025C0000C07210E0E4C05786155047804F01F05A8
:1025D0000124AC4005786D11AD0005F1E025C5F88A
:1025E000004109E0047804F01F050124AC40054DCA
:1025F0000678761145F8264070BD00000CED00E02D
:1026000000E400E080E100E002490143024A116079
:10261000704700000000FA050CED00E010B504461C
:102620000021FF2001F0C2FA00217C2001F0BEFA57
:1026300004217D2001F0BAFA09217C2001F0B6FACC
:102640002007010E7D2001F0B1FA00217D2001F06C
:10265000ADFA10BD70B50446A01C082141EA001077
:10266000C5B20021FF2001F0A1FA00217C2001F079
:102670009DFA02217D2001F099FA03217C2001F0CE
:1026800095FA29467D2001F091FA29467D2001F036
:102690008DFA70BD70B504462025202634B1012C7A
:1026A00007D0032C08D0042C0CD108E018253426C0
:1026B00008E01C252A2605E02425162602E0282508
:1026C0000C2600BF00BF0021FF2001F06FFA00219F
:1026D0007C2001F06BFA04217D2001F067FA0721CC
:1026E0007C2001F063FA20217D2001F05FFA294669
:1026F0007D2001F05BFA31467D2001F057FA06217A
:102700007D2001F053FA70BD2DE9F04780468946DF
:1027100014461D46E11704EB91718910A4EB810169
:1027200011B10120BDE8F087E91705EB917189101F
:10273000A5EB810109B10220F4E72046E11704EB83
:102740009171C1F38F062846E91705EB9171C1F32A
:102750008F0A0021FF2001F029FA0421E02001F076
:1027600025FAF1B2512001F021FA0AF0FF015220BE
:1027700001F01CFA08F0FF01532001F017FA09F0EC
:10278000FF01542001F012FA802000EA6A0770204D
:1027900000EA29100743082000EA66100743C8F33F
:1027A000022007433946552001F000FA802000EA54
:1027B000A601572001F0FAF90021E02001F0F6F916
:1027C0000020AFE72DE9F0410025012211464C48D9
:1027D00005F0DEFE20204B4948830A2004F08BFBE5
:1027E0000220494908800A2004F085FB022046495E
:1027F000891E088001F0EEF80121FF2001F0D6F9D2
:102800008021122001F0D2F9322004F074FB1C2048
:1028100001F036F904464FF6FF7000EA04241D204B
:1028200001F02EF9044347F6A270844223D000BF82
:102830003648006800B91AE006F02AFA4FF47A71B7
:10284000B0FBF1F201FB120606F022FA4FF47A71A6
:10285000B0FBF1F7324639462DA003F0ABFC214620
:102860002FA003F0A7FC31A003F0A4FC00BF00BF21
:102870000120BDE8F0810A2001F002F904464FF67C
:10288000FF7000EA04240B2001F0FAF8044342F23E
:102890004260844222D000BF1C48006800B91AE0A0
:1028A00006F0F6F94FF47A71B0FBF1F201FB120673
:1028B00006F0EEF94FF47A71B0FBF1F73246394683
:1028C00013A003F077FC214619A003F073FC17A0B6
:1028D00003F070FC00BF00BF0220CAE700250AE039
:1028E000164A02EB45025178144A12F8150001F01D
:1028F0005DF9681C85B2B12DF2D30020B9E7000064
:1029000000080240001002401A0402406400002047
:102910005B493A2025642E253033645D2000000099
:102920004D49443A25640D0A000000000D0A0000DC
:102930004849443A25640D0A00000000BA96000890
:1029400010B5002400BF0AE00E4A02EB44025178A1
:102950000C4A12F8140001F029F9601C84B2082C0A
:10296000F2D300240AE0084A02EB44025178064AF6
:1029700012F8140001F01AF9601C84B2072CF2D38B
:1029800010BD0000469800081C9800082DE9F04191
:1029900004465E254126542734B1022C0ED0032C68
:1029A00010D0042C16D111E00021FF2001F0FEF818
:1029B0001021C72001F0FAF8BDE8F0816525412615
:1029C0004F2707E052254126662703E042253F2690
:1029D000712700BF00BF0021FF2001F0E7F8402170
:1029E000C72001F0E3F82946CC2001F0DFF831469A
:1029F000CD2001F0DBF83946CE2001F0D7F800BF3A
:102A0000DAE72DE9F04104460D46E11704EB917138
:102A10008910A4EB810111B10120BDE8F081E91713
:102A200005EB91718910A5EB810109B10220F4E752
:102A30002046E11704EB9171C1F38F072846E9178F
:102A400005EB9171C1F38F060021FF2001F0AEF874
:102A50000421E02001F0AAF8F9B25A2001F0A6F80A
:102A6000F1B25B2001F0A2F8C7F30128042000EACC
:102A7000A61040EA080841465C2001F097F80021C2
:102A8000E02001F093F80020C7E72DE9F04104466B
:102A9000002580268027072C19D2DFE804F01804CF
:102AA00006080C101400402511E018250FE0182529
:102AB0004026C0270BE018254026402707E01825B0
:102AC000A026402703E018254026A62700BF00BF08
:102AD0000021FF2001F06AF800217C2001F066F857
:102AE00029467D2001F062F805217C2001F05EF886
:102AF00031467D2001F05AF839467D2001F056F824
:102B0000BDE8F0812DE9F84304460D4616461F4600
:102B100000BF6B48006800B91DE006F0B9F84FF43B
:102B20007A71B0FBF1F201FB120806F0B1F84FF434
:102B30007A71B0FBF1F94246494662A003F03AFBD4
:102B400033462A46214663A0009703F033FB6CA06E
:102B500003F030FB00BF00BF012C06D0022C09D0CF
:102B6000032C7DD0042C7AD17DE0E9B2002002F064
:102B700041FE9CE06348007801286ED10121624843
:102B8000006803F0CBFE00BF4D48006800B91BE0B1
:102B900006F07EF84FF47A71B0FBF1F201FB1208F7
:102BA00006F076F84FF47A71B0FBF1F942464946E7
:102BB00044A003F0FFFA5448016854A003F0FAFA65
:102BC0004FA003F0F7FA00BF00BF4F48006806F0BF
:102BD00083FAF8B100BF3A48006800B919E006F07E
:102BE00057F84FF47A71B0FBF1F201FB120806F0CE
:102BF0004FF84FF47A71B0FBF1F94246494631A0E3
:102C000003F0D8FA43A003F0D5FA3DA003F0D2FABE
:102C100000BF1FE000BF2A48006800B919E006F0B5
:102C200037F84FF47A71B0FBF1F201FB120806F0AD
:102C30002FF84FF47A71B0FBF1F94246494621A0D2
:102C400003F0B8FA38A003F0B5FA2DA003F0B2FAF9
:102C500000BF00BF02203A49087028E000E005E00C
:102C600003F046FD23E003F015FD20E000BF14480B
:102C7000006800B919E006F00BF84FF47A71B0FB68
:102C8000F1F201FB120906F003F84FF47A71B0FB80
:102C9000F1F84A4641460BA003F08CFA29A003F054
:102CA00089FA17A003F086FA00BF00BF00BF00BF7B
:102CB0004FF480612848FDF7DFFA0020BDE8F88373
:102CC000640000205B493A2025642E253033645D82
:102CD00020000000696E666F3A4F6E436667446578
:102CE0006275673A547970653D25642C50313D25F5
:102CF000642C50323D25642C50333D25642E000059
:102D00000D0A00004C000020B40000206E616D65CB
:102D10003A25730074616B652070686F746F20666C
:102D200061696C656421000074616B652070686F77
:102D3000746F207375636365737366756C2100002F
:102D4000BC0000207761726E3A504152414D2049DB
:102D50004E56414C49442100F003002001490862CD
:102D60007047000000000E427047000029B1064A7B
:102D700012680243044B1A6004E0034A126882435B
:102D8000014B1A60704700003038024029B1064AF2
:102D900012680243044B1A6004E0034A126882433B
:102DA000014B1A60704700003438024029B1064ACE
:102DB00012680243044B1A6004E0034A126882431B
:102DC000014B1A60704700004038024029B1064AA2
:102DD00012680243044B1A6004E0034A12688243FB
:102DE000014B1A60704700002038024029B1064AA2
:102DF00012680243044B1A6004E0034A12688243DB
:102E0000014B1A60704700004438024029B1064A5D
:102E100012680243044B1A6004E0034A12688243BA
:102E2000014B1A607047000024380240F0B50021C1
:102E300000220024022500260223324F3F6807F0BB
:102E40000C0121B1042905D0082937D105E02E4F06
:102E5000076036E02D4F076033E02A4F3F1F3F6881
:102E6000C7F38056274F3F1F3F6807F03F036EB1FF
:102E7000264FB7FBF3F7DFF88CC0ACF1040CDCF89D
:102E800000C0CCF3881C07FB0CF40CE01E4FB7FB12
:102E9000F3F7DFF870C0ACF1040CDCF800C0CCF341
:102EA000881C07FB0CF4174F3F1F3F68C7F301470F
:102EB0007F1C7D00B4FBF5F7076002E0124F07604E
:102EC00000BF00BF0F4F3F6807F0F0010909104F26
:102ED0007A5C0768D74047600A4F3F6807F4E051C3
:102EE000890A0B4F7A5C4768D7408760054F3F6877
:102EF00007F46041490B064F7A5C4768D740C760CA
:102F0000F0BD0000083802400024F40000127A00EE
:102F10000000002010B501460022002300204A11C5
:102F2000012A02D10A4C236808E0022A03D1084C86
:102F30007034236802E0064C7434236801F01F02E9
:102F4000012494401C400CB1012000E0002010BD81
:102F5000003802400149086070470000800E474277
:102F600001490860704700003C0E4742002100F410
:102F70004072B2F5407F08D1094A116821F4F81176
:102F8000084A02401143064A1160054A6832126835
:102F9000C0F30B031A43024B68331A6070470000FA
:102FA00008380240FFFCFF0F30B10749096841F0C3
:102FB0000401054A116005E00349096821F0040194
:102FC000014A11607047000000080650014800687F
:102FD000704700000808065038B5024600240094E7
:102FE00000230020CA24184D2C6053242C6041B1CA
:102FF000154C1C3C24681443134D1C3D2C600120CF
:103000001EE0114C1C3C246894430F4D1C3D2C6069
:1030100000BF0D4C183C246804EA1223009C641C79
:103020000094009CB4F5803F01D0002BF1D0064CF9
:10303000183C246804EA12240CB9002000E00120A6
:10304000FF24014D2C6038BD2428004070B54FF49A
:10305000807000F00FF9012822D1000200F056F82C
:1030600000BF1248006800B919E005F011FE4FF4E6
:103070007A71B0FBF1F201FB120405F009FE4FF486
:103080007A71B0FBF1F52246294609A003F092F8C7
:103090000BA003F08FF80FA003F08CF800BF00BF67
:1030A0004FF40030FEF7EEFE70BD0000640000201B
:1030B0005B493A2025642E253033645D20000000F2
:1030C00052544320416C61726D2054696D654F7597
:1030D000742100000D0A0000014600BF080900EB42
:1030E0008000420001F00F001044C0B2704701465A
:1030F000002204E0501CC2B2A1F10A00C1B20A29A8
:10310000F8DA100741EA10607047000081B241F020
:103110008001044A126802F0800262EA0101014A59
:10312000116070470C28004010B501210807FFF717
:103130003DFE0120FFF712FE0120FFF70BFF00BF4D
:103140006120FFF7E7FE0028FAD04FF40070FFF788
:103150000DFFFF20284908607F20284908600120D2
:10316000FFF7FEFE00F0C6FA2448006824494860D4
:1031700021480068886000200860084600F004F9D3
:1031800013202049C87001204870887006200870FC
:10319000012000F0B1F900201B49C8700870487088
:1031A0008870012000F004FA43F2F221002000F0C0
:1031B000D1FA00201549C8700520087020204870F9
:1031C0003020887031200873002088604FF0004064
:1031D00048600A46C10D012000F018F901210803DA
:1031E00000F0A0F801210802FFF7F6FE4FF480700E
:1031F000FFF78CFF10BD0000300000202C000020E5
:10320000C40000202800002024000020D00000205E
:1032100008B50022009200200021104A126802F036
:103220004002CAB9421E0D4B1A6000BF0B4A126819
:1032300002F04001009A521C0092009AB2F5803FC1
:1032400001D00029F2D0054A126802F040020AB10A
:10325000012002E0002000E0012008BD0C28004011
:103260000348006820F080000149086070470000B2
:103270000C28004010B5014600200022064B1B68B8
:1032800043F6777403EA040202EA01030BB101205A
:1032900000E0002010BD00000C28004070B506467C
:1032A0000C4600250F4800680F4900EA0105C5F3E8
:1032B00005402070C5F30620607005F07F00A07007
:1032C00005F48000000CE0705EB92078FFF704FF81
:1032D00020706078FFF700FF6070A078FFF7FCFEB9
:1032E000A07070BD002800407F7F7F0038B500BF10
:1032F00069460020FFF7D2FF9DF80000C0EB0010E8
:103300008000C0EB001080009DF80110C1EB01119E
:1033100000EB81009DF8021044184FF47A7104FB11
:1033200001F038BDCA22174B1A6053221A6091B1BE
:10333000144A1C3A126820F004031A43114B1C3B38
:103340001A60104A1C32126800F004031A430D4B35
:103350001C331A6011E00B4A1C3A126820F0040377
:103360009A43084B1C3B1A60064A1C32126800F054
:1033700004039A43034B1C331A60FF22014B1A606B
:10338000704700002428004030B504460025CA20BC
:103390001549086053200860FFF73AFF00B91DE0A7
:1033A00011481C38006820F040000F491C390860A3
:1033B00008460068216808430B491C3908600A491F
:1033C0001439A068086008460068A18840EA0140F6
:1033D000054914390860FFF743FF0125FF20024922
:1033E0000860284630BD00002428004008B501468A
:1033F0000020009004480090009800EB81000090AD
:103400000098006808BD0000502800402DE9F041F8
:1034100005460E461446002765B93648006800F098
:10342000400000B102E00020E07000BFA06800B9D9
:1034300019E018E02F48006800F0400020B1207823
:10344000FFF74AFE074602E00020E07000BFA068D8
:1034500020B9207BFFF740FE074604E0207BFFF702
:103460003BFE074600BF95B120780004617840EA32
:103470000120A1780843E17840EA0140217B40EA3D
:103480000160A1680843616840EA01071BE02078F9
:10349000FFF72DFE4FEA00486078FFF728FE48EA64
:1034A0000028A078FFF723FE48EA0008E07848EA01
:1034B0000048207BFFF71BFE48EA0060A168084334
:1034C000616840EA0107CA200A491C31086053209C
:1034D0000860B6F5807F03D106481430076002E02B
:1034E000044818300760FF2002491C310860BDE81D
:1034F000F0810000082800402DE9F04105460C4607
:10350000002600274DB9607800F01000102804D183
:10351000607820F010000A30607005B908E060782B
:10352000FFF7DAFD0646A078FFF7D6FD064600BF96
:1035300055B1E0780004617840EA0120A1780843A1
:10354000217840EA413611E0E078FFF7D0FD4FEAFC
:1035500000486078FFF7CBFD48EA0028A078FFF725
:10356000C6FD48EA0008207848EA4036CA200E49DD
:10357000086053200860FFF74BFE08B900270CE0F5
:103580000A483040084920390860FFF769FE00F01A
:10359000B1F808B9002700E00127FF2002490860C0
:1035A0003846BDE8F0810000242800403FFFFF00BE
:1035B0002DE9F04105460C46002600274DB92A4862
:1035C000006800F0400000B102E00020E07000BFA1
:1035D0000DE02548006800F0400020B12078FFF79A
:1035E0007BFD064602E00020E07000BF00BF55B141
:1035F00020780004617840EA0120A1780843E1784E
:1036000040EA014611E02078FFF771FD4FEA0048DB
:103610006078FFF76CFD48EA0028A078FFF767FDA7
:1036200048EA0008E07848EA0046CA200E491C3102
:10363000086053200860FFF7EBFD08B900270CE095
:103640000A483040084908390860FFF709FE00F0D1
:1036500051F808B9002700E00127FF2002491C317A
:1036600008603846BDE8F081082800407F7F7F0071
:1036700070B54FF48060FFF7FDFD012822D1800274
:10368000FFF744FD00BF1248006800B919E005F0DB
:10369000FFFA4FF47A71B0FBF1F201FB120405F06E
:1036A000F7FA4FF47A71B0FBF1F52246294609A0EA
:1036B00002F080FD0BA002F07DFD0DA002F07AFD6E
:1036C00000BF00BF4FF48000FEF7DCFB70BD0000C0
:1036D000640000205B493A2025642E253033645D68
:1036E000200000005254432057616B657570210023
:1036F0000D0A000008B50022009200200021CA2215
:10370000134B1A6053221A60114A183A126822F0B9
:10371000A0020F4B183B1A6000BF0D4A183A1268FE
:1037200002F02001009A521C0092009AB2F5003F6C
:1037300001D00029F1D0064A183A126802F020029E
:103740000AB1012000E00020FF22014B1A6008BDF1
:103750002428004008B500220092044A0092009AF2
:1037600002EB80020092009A116008BD50280040D0
:103770002DE9F04104460D46042D01DCBDE8F08141
:103780002078AA287CD160785528FBD1A81E205C1F
:10379000552876D1681E205CAA28FAD1A078012885
:1037A00004D0022817D0032814D131E0E07810B1FA
:1037B00001280ED108E00021084601F08FFF00210A
:1037C000012001F08BFF04E00121002001F086FFC1
:1037D00000BF00BF99E0E078012804D0022807D09C
:1037E000032813D109E00221002001F077FF0DE04A
:1037F0000321002001F072FF08E00421002001F005
:103800006DFF0121084601F069FF00BF00BF7CE0A9
:10381000E078012877D150480078012872D1012141
:103820004E48006803F07AF800BF4D48006800B9C0
:103830001BE005F02DFA4FF47A71B0FBF1F201FBB9
:10384000120605F025FA4FF47A71B0FBF1F7324613
:10385000394644A002F0AEFC4048016845A002F0A1
:10386000A9FC46A002F0A6FC00BF00BF3B480068D0
:1038700005F032FC20B300BF3948006810B91BE0E6
:1038800068E043E005F004FA4FF47A71B0FBF1F21E
:1038900001FB120605F0FCF94FF47A71B0FBF1F769
:1038A000324639462FA002F085FC35A002F082FC9A
:1038B00032A002F07FFC00BF00BF02F0EBFE21E06F
:1038C00000BF2748006800B919E005F0E1F94FF49E
:1038D0007A71B0FBF1F201FB120605F0D9F94FF451
:1038E0007A71B0FBF1F7324639461EA002F062FC55
:1038F00028A002F05FFC21A002F05CFC00BF00BF2A
:1039000002F0F6FE00BF00BF00BF23E000BF144876
:10391000006800B91DE005F0BBF94FF47A71B0FB07
:10392000F1F201FB120605F0B3F94FF47A71B0FB26
:10393000F1F7324639461DA002F03CFC681E225CBD
:10394000A81E215C1DA002F035FC0CA002F032FC88
:1039500000BF00BF00BF11E74C000020B4000020F2
:10396000640000205B493A2025642E253033645DD5
:10397000200000006E616D653A2573000D0A00009D
:1039800074616B652070686F746F206661696C6527
:103990006421000074616B652070686F746F207320
:1039A00075636365737366756C2100005B453A202F
:1039B00025642E253033645D20000000696E766139
:1039C0006C6964207461696C3A307825782C3078A1
:1039D0002578000010B510220421044804F059FD98
:1039E00010220821014804F054FD10BD00100240CF
:1039F00010B5322003F08BFA08200A49088304200E
:103A00000883322003F083FA0420064948833220D9
:103A100003F07DFA082003494883322003F077FA47
:103A200010BD00000010024070B50024482208219B
:103A3000124804F02EFD082516E0322003F067FA44
:103A400004200E4908836006040E0846006900F051
:103A5000080008B1601CC4B2322003F058FA0420F8
:103A600006494883681EC5B2002DE6DC10220821F5
:103A7000024804F00EFD204670BD00000010024018
:103A800070B50446002500F023F8602000F04CF8E3
:103A9000642003F03CFA204600F046F8642003F06E
:103AA00036FA00F02BF8642003F031FA00F010F839
:103AB000612000F039F8642003F029FAFFF7B4FF21
:103AC0000546FFF795FF00F019F8284670BD000085
:103AD00010B508200849088304200883322003F029
:103AE00016FA082004494883322003F010FA042013
:103AF0000149488310BD00000010024010B50820A5
:103B000008494883322003F002FA0420054908835B
:103B1000322003F0FCF9082002490883322003F028
:103B2000F6F910BD0010024070B50446002619E0F9
:103B300004F0800018B108201B49088302E0082027
:103B4000194948836006040E322003F0E0F904208E
:103B500015490883322003F0DAF90420124948831A
:103B6000701CC6B2082EE3DB482208210E4804F080
:103B700090FC322003F0CBF904200B49088332205B
:103B800003F0C5F90848006900F0080008B10125F4
:103B900000E000250420044948831022082102483F
:103BA00004F077FC284670BD0010024070B5054651
:103BB0000C460026FFF78CFF6020FFF7B5FF00B131
:103BC0000126642003F0A3F92846FFF7ADFF00B1FA
:103BD0000126642003F09BF92046FFF7A5FF00B102
:103BE0000126FFF78BFF304670BD00007CB505460F
:103BF000002400200090019000260DB1022600E074
:103C000000262248006800F0007008B10E207CBD3C
:103C10001F49098888B26946FEF784F904460CB149
:103C20002046F4E7019800F4802060B3184800882B
:103C30000004184908603720486040208860002050
:103C4000C8604FF480600861084600F09BF8372098
:103C5000FDF71AFD04460CB12046D8E70D48066072
:103C600006200C494860402088600020C8604FF45E
:103C700080600861084600F085F80620FDF704FD25
:103C800004462046C3E72520C1E70000142C01406C
:103C900044000020480100200149086070470000EE
:103CA000382C01400146034A106820F0FF00084309
:103CB00010607047042C014000210B4B02681A6011
:103CC0001B1D42681A601A1D116821F0F701D0E926
:103CD00002231A4303691A4343691A431143024AF0
:103CE0000832116070470000242C0140014600207A
:103CF000034A12680A400AB1012000E00020704720
:103D0000342C01400248006800F0030070470000B6
:103D1000002C014010B500F08BFC10BD00210A4AB8
:103D2000116847F6FF629143027D83681A43436836
:103D30001A43C3681A4303681A4303691A431143B9
:103D4000014A116070470000042C014000200B491B
:103D50000860091D0860091D0860091D0860074901
:103D600024310860091D0860091D086004480349E2
:103D7000383108600020091D08607047002C0140A0
:103D8000FF07C0000021094B02681A601A1D116864
:103D90006FF30A01D0E901231A43C3681A43036988
:103DA0001A431143014A121D11607047082C01404B
:103DB0000149086070470000002C014070B590B0C8
:103DC00004460E46154600BF1A48FDF745FF002879
:103DD000FAD11848FDF77EFE4FF0006001901648BA
:103DE0000290039404950020059006904FF48060A3
:103DF0000790800008908000099000200A904FF4FE
:103E000040300B9004200C9003200D904FF40000E4
:103E10000E9080100F9001A90648FDF76BFF20213E
:103E20000448FDF70EFF01210248FDF747FE10B0E0
:103E300070BD000058640240802C014070B50446FB
:103E4000002516480078032802D12725284670BD92
:103E50001248007838B111480078012803D00F4883
:103E60000078022817D1B4F5805F02D127252846B3
:103E7000EDE7E0B2FFF7BAFE054665B9084800680D
:103E800020F4C050064908600846006820430860D6
:103E90000846006808602846D9E700004000002076
:103EA000042C0140F0B5014600200022BE4B1B78D7
:103EB00081F85630BD4B1B88A1F85430BC4B1B68B1
:103EC0001A0E93090B70C2F383034B7002F00303C5
:103ED0008B70B74B1B68C3F30742CA70B44B1B8887
:103EE000C3F307220A71B24B1A784A715B681A0E43
:103EF0001301CB80AE4B5B68C3F30742CB8843EA28
:103F00001213CB8002F00F030B72A94B9B88C3F3F3
:103F10000722D3094B72C2F380138B72C2F3401392
:103F2000CB72C2F300130B7300234B739E4B1B78B1
:103F30003BB19D4B1B78012B03D09B4B1B78032B74
:103F40004FD193071B0D0B61994B1A790B6943EA0B
:103F500082030B61964B9B681A0E0B6943EA92131E
:103F60000B61C2F3C2030B7502F007034B75904B54
:103F70009B68C3F3074253098B75C2F38203CB7569
:103F800093075B0F0B768A4B1B89C3F307220B7ECB
:103F900043EAD2130B760B695B1C0024C1E912348F
:103FA0000B7E9B1C012404FA03F3DC17D1E91256A3
:103FB000A5FB037C06FB03C305FB0433C1E91273B5
:103FC0000C7A0123A3400B650024D1E912650B6D27
:103FD000A6FB037C05FB03C306FB0433C1E9127394
:103FE0002EE0714B1B78022B2AD1714B1A79930664
:103FF0009B0A0B616E4B9B681A0E0B6943EA022306
:104000000B616B4B9B68C3F307420B6913430B6156
:10401000674B1B89C3F307220B695B1C4FF40074C9
:10402000A3FB04464FF480630025A4FB037C06FB3E
:1040300003C304FB0533C1E912734FF400730B652E
:10404000C2F3801301F8193F93065B0E4B70584B77
:104050001A7A4B7843EAD2134B7002F07F038B70CD
:10406000534BDB681A0ED309CB70C2F341130B71AB
:10407000C2F382034B7193071B0F8B714C4BDB68B0
:10408000C3F307428B7943EA92138B71C2F3401357
:10409000CB7100230B7202F001034B72444B9B89DE
:1040A000C3F30722D3098B72C2F38013CB72C2F31E
:1040B00040130B73C2F300134B73C2F381038B7372
:1040C00002F00303CB733A4B1A7B53080B740123A2
:1040D0004B74384B1B681A0ECA741939354B1B6860
:1040E000C3F307421402CC85324B1B88C3F307226B
:1040F000CB8D1343CB852F4B1A7814060C635B686A
:104100001A0E0B6B43EA02440C632A4B5B68C3F341
:1041100007420B6B43EA02240C63264B9B88C3F3D4
:1041200007220B6B13430B63224B1A7934235A5427
:10413000204B9B681A0E35235A541E4B9B68C3F3C1
:10414000074214068C631B4B1B89C3F307228B6B3E
:1041500043EA02448C63174B1A7A8B6B43EA0224BE
:104160008C63144BDB681A0E8B6B13438B63114B00
:10417000DB68C3F307423C235B5C43EA12143C2335
:104180005C5413071C0DCC870A4B9B89C3F3072291
:10419000CB8F1343CB87074B1A7B540840235C54C7
:1041A000012441235C54F0BD400000204400002065
:1041B00074010020840100203EB500240025012167
:1041C0004448FEF7D3FD0121C802FEF70FFE01218E
:1041D000C802FEF71BFE4FF4F850019002208DF844
:1041E00008008DF8090000208DF80A0001208DF8E4
:1041F0000B0001A93848FDF75FFF0420019001A9D9
:104200003648FDF759FF0C2208213348FDF79CFF83
:104210000C2209213048FDF797FF0C220A212E4875
:10422000FDF792FF0C220B212B48FDF78DFF0C228E
:1042300011462948FDF788FF0C2202212748FDF787
:1042400083FF00214FF40060FEF7E0FDFFF77EFDE5
:1042500031208DF8000000208DF801008DF802005B
:1042600001208DF803006846FEF792F900F0EEF8A1
:10427000044614B900F038F804461CB91848FFF792
:1042800011FE044634B91649B1F85410080400F080
:1042900073FD044624B94FF40060FFF7CFFD0446D8
:1042A0001CB110480078032812D10D4890F8560030
:1042B00020B10B4890F85600012801D1022500E0FA
:1042C00000252846FFF7EEFC002000F06DFD0446B7
:1042D00020463EBD0C00400000080240000C024099
:1042E000980100204000002038B5002401200090F3
:1042F000FFF708FD10B92524204638BD4D48007849
:10430000042824D000204C49086002204860C020C6
:1043100088600020C8604FF4806008610846FFF79D
:1043200031FDFDF7E3F904460CB12046E5E74348CB
:104330000068434908604148001D006848603F48E4
:104340000830006888603D480C300068C860394813
:10435000007858B137480078012807D035480078F0
:10436000062803D033480078022816D100203249AD
:10437000086003204860402088600020C8604FF437
:10438000806008610846FFF7FDFC69460320FDF7E1
:10439000F3F904460CB12046AFE72648007803281D
:1043A00016D1BDF8000000042349086003204860CE
:1043B000402088600020C8604FF480600861084693
:1043C000FFF7E0FCFDF792F904460CB1204694E7B4
:1043D0001848007804282AD0BDF800001949086060
:1043E000BDF8000000041449086009204860C0209E
:1043F00088600020C8604FF4806008610846FFF7BD
:10440000C1FCFDF773F904460CB1204675E70B4873
:1044100000680D4908600948001D006848600748A9
:1044200008300068886005480C300068C8600020CB
:1044300063E700004000002048010020142C0140E8
:104440008401002044000020740100202DE9F04781
:104450000027002400260025A046A14676206E49AC
:1044600008750020086048608860C86008610846D8
:10447000FFF754FC0320FFF79BFC6848006840F4FA
:1044800080706649086000BF12E00020644908603F
:1044900048608860C8604FF4806008610846FFF794
:1044A00071FCFDF7D9F8044604B903E0781CC7B2E3
:1044B0004A2FEADB00BF14B12046BDE8F0874FF475
:1044C000D570574908600820486040208860002067
:1044D000C8604FF4806008610846FFF753FCFDF7A1
:1044E00095F9044624B901204E4908704FF08049DF
:1044F00000204B4908603720486040208860002039
:10450000C8604FF4806008610846FFF73BFC372025
:10451000FDF7BAF80446002C4CD135E000204049A4
:10452000086037204860402088600020C8604FF451
:10453000806008610846FFF725FC3720FDF7A4F8E6
:1045400004460CB12046B8E7374849EA0000344930
:10455000086029204860402088600020C8604FF42F
:10456000806008610846FFF70DFCFDF7E9F8044696
:104570000CB12046A1E7294810300668012080EAE6
:10458000D67080F001086D1CB8F1000F03D14FF612
:10459000FF708542C2D34FF6FF70854202D31B24C1
:1045A00020468AE706F08040061E33D002201D49CF
:1045B00008702FE01DE01D4819490860012048607F
:1045C000402088600020C8604FF480600861084681
:1045D000FFF7D8FBFDF7B4F804460CB120466CE7B2
:1045E0000E4810300668012080EAD67080F001087D
:1045F0006D1CB8F1000F03D14FF6FF708542DAD37E
:104600004FF6FF70854202D31B24204655E7032056
:1046100004490870204650E730010020042C014076
:104620004801002040000020000010800080FF8032
:1046300010B54FF48070FFF759FB78B34C48007801
:10464000012814D100204B4908600C20486040200C
:1046500088600020C8604FF4806008610846FFF75A
:1046600091FB0C20FDF710F84349087002E0002090
:10467000414908704148006840F480703F49086033
:10468000081D00684CF23A3188433C49091D086016
:1046900001203B4908703848007810BDFFE7022030
:1046A000FFF724FB78B10220FFF7F6FA3348001D2C
:1046B00000684CF23A3188433049091D08600220F5
:1046C0002D490870E9E70820FFF710FB78B10820B2
:1046D000FFF7E2FA2948001D00684CF23A3188439E
:1046E0002649091D0860042023490870D5E72020C9
:1046F000FFF7FCFA78B12020FFF7CEFA1F48001D23
:1047000000684CF23A3188431C49091D08600620B4
:1047100019490870C1E71020FFF7E8FA78B11020B6
:10472000FFF7BAFA1548001D00684CF23A31884389
:104730001249091D086005200F490870ADE74FF4C4
:104740000070FFF7D3FA80B14FF40070FFF7A4FABE
:104750000A48001D00684CF23A3188430749091D98
:10476000086007200449087097E7002095E70000DB
:1047700049000020480100204A000020382C014058
:104780004B0000202DE9F84F8146174698460A9CB9
:104790004FF0000AD3464D464FF0FF36B9F1000FF7
:1047A00002D12620BDE8F88F00208649086086489F
:1047B0000078022805D10402780A40EAC8574FEA77
:1047C00068280020814988604860401E08600120F8
:1047D00048610020C86008610846FFF76DFA794813
:1047E0001838006800F0007008B10E20DAE7002CDD
:1047F00021DDB4F5006F1EDC601E2040D8B92046D4
:1048000002F08AF9009072480460102070494860F4
:10481000402088600020C8604FF48060086108462E
:10482000FFF7B0FA1020FCF72FFF8246BAF1000F15
:1048300003D05046B6E72620B4E70098000163494C
:104840008860084644604FF0FF30086001204861EE
:104850000220C860002008610846FFF72DFA5C4876
:10486000076011205A494860402088600020C860D5
:104870004FF4806008610846FFF784FA1120FCF7C6
:1048800003FF8246BAF1000F01D050468AE7514833
:10489000007800285CD1FBF78CFC18E04FF4004056
:1048A000FFF724FA78B14FF0000B06E0454854308A
:1048B000006845F82B000BF1010BBBF1080FF5D395
:1048C0002035454E03E00EB904206BE7761E3D48C7
:1048D0000830006840F22A6108400028DED0082035
:1048E000FFF704FA20B10820FFF7D6F9042059E7B2
:1048F0000220FFF7FBF920B10220FFF7CDF90220DB
:1049000050E72020FFF7F2F920B12020FFF7C4F98B
:10491000062047E74FF40070FFF7E8F928B14FF49D
:104920000070FFF7B9F907203CE704E02548543050
:10493000006828602D1D4FF40010FFF7D7F90028FC
:10494000F4D1FBF738FC40F2FF50FFF7A5F936E051
:1049500020480078012832D10020204908702049E1
:1049600008702049087017481030006840F22A315A
:1049700008431449103108601248006840F00800EC
:1049800010490860002221464846FFF717FA00E068
:10499000761E1548006800F0006038B911480078AC
:1049A00020B90E48007808B9002EF1D10EB90420C4
:1049B000F8E60A48007810B1084890F800A0504680
:1049C000F0E600002C2C0140400000205C0100209B
:1049D0004801002048000020FFFF7F004A0000201F
:1049E000490000204B000020006402402DE9FE4FEA
:1049F00083460C46914600200290002625462C4610
:104A0000700240EAD5566D020BF00300F0B14FF092
:104A1000000A18E04FF4007000904FEA4A2047194E
:104A200046EBE0733A461648FFF7ACFE02904FF4AF
:104A3000007213495846FBF706FC0BF5007B0AF1A0
:104A4000010000F0FF0ACA45E4DB16E0B9F1010FEE
:104A500009D14FF400702A46334600905846FFF7BC
:104A600091FE029009E04FF400702A463346CDE9EA
:104A70000009584600F006F802900298BDE8FE8F43
:104A8000F00100202DE9FF5F17469846DDE90E464C
:104A90004FF00009CA464FF0FF35AC490098086056
:104AA0000020AB490860AB480078022805D1040219
:104AB000780A40EAC8574FEA68280020A64988606B
:104AC0004860401E0860012048610020C8600861FD
:104AD0000846FFF7F1F89E481838006800F00070AB
:104AE00018B10E2004B0BDE8F09F002C21DDB4F514
:104AF000006F1EDC601E2040D8B9204602F00CF882
:104B0000834696480460102094494860402088609D
:104B10000020C8604FF4806008610846FFF732F952
:104B20001020FCF7B1FD8146B9F1000F03D04846D3
:104B3000D8E72620D6E7012E71D906FB04F0B0F1A4
:104B4000007F01D32620CDE74FEA0B108249886011
:104B500006FB04F048604FF0FF3008600120486118
:104B60000220C860002008610846FFF7A5F87B48CE
:104B70000760122079494860402088600020C860A2
:104B80004FF4806008610846FFF7FCF81220FCF73C
:104B90007BFD8146B9F1000F01D04846A2E770487D
:104BA000007800287ED1FBF704FB1EE04FF40040A4
:104BB000FFF79CF8A8B14FF0000A08E064485430B1
:104BC00000686249096841F82A000AF1010ABAF14D
:104BD000080FF3D35D48006820305C490860614DE0
:104BE00003E00DB904207DE76D1E594808300068C8
:104BF00040F22A3108400028D8D00820FFF776F884
:104C000020B10820FFF748F804206BE70220FFF7E7
:104C10006DF828B10220FFF73FF8022062E792E02A
:104C20002020FFF763F820B12020FFF735F8062099
:104C300058E74FF40070FFF759F828B14FF40070AF
:104C4000FFF72AF807204DE70AE041485430006892
:104C50003E49096808603D480068001D3B490860FE
:104C60004FF40010FFF742F80028EED14FF48070A7
:104C7000FFF73CF820B33748007838B13548007862
:104C8000012803D033480078022819D10020334985
:104C900008600C204860402088600020C8604FF405
:104CA000806000E013E008610846FFF76BF80C2015
:104CB000FCF7EAFC8146B9F1000F01D0484611E744
:104CC000FBF779FA40F2FF50FEF7E6FF3BE024489D
:104CD0000078012837D1002023490870012023499A
:104CE000087000202249087019481030006840F20E
:104CF0002A3108431649103108601548006840F011
:104D000008001349086006FB04F100220098FFF731
:104D100055F800E06D1E1748006800F0006008B903
:104D2000002DF7D10DB90420DCE600BF1048007853
:104D300018B90D4800780028F8D00B48007810B159
:104D4000094890F800904846CCE60000500000204A
:104D50002C2C0140400000205C0100204801002074
:104D600048000020FFFF7F004A000020490000208B
:104D70004B0000200064024010B50446094804605E
:104D8000072008494860402088600020C8604FF430
:104D9000806008610846FEF7F5FF0720FCF774FC09
:104DA00010BD00004801002001460020012900D06C
:104DB00011B9024B197000E026207047480000200E
:104DC0002DE9FF5F86B017469846149D0026002007
:104DD000059004900024814603908246029001953C
:104DE000DDF818B0DDF818B0BBF1000F03D12620B4
:104DF0000AB0BDE8F09F0020C9490860C949886031
:104E00004860401E0860012048610020C8600861B9
:104E10000846FEF751FFC2481838006800F00070DD
:104E200008B10E20E4E7C0480078022805D1050249
:104E3000780A40EAC8574FEA6828002D1FDDB5F50B
:104E4000006F1CDC681E2840C8B9284601F064FECB
:104E50000590B64805601020B4494860402088603D
:104E60000020C8604FF4806008610846FEF78AFFA2
:104E70001020FCF709FC06461EB13046B8E7262094
:104E8000B6E7AB4800880004A84908600D204860D8
:104E9000402088600020C8604FF4806008610846A8
:104EA000FEF770FF0D20FCF7EFFB06460EB1304613
:104EB0009EE79B481838006803904FF0FF341CE0D1
:104EC000641E9B4800880004984908600D204860D3
:104ED000402088600020C8604FF480600861084668
:104EE000FEF750FF0D20FCF7CFFB06460EB1304613
:104EF0007EE78B48183800680390039800F48070B0
:104F000008B9002CDCD10CB9292071E7874807606B
:104F1000182086494860402088600020C8604FF40F
:104F2000806008610846FEF72DFF1820FCF7ACFBF7
:104F300006460EB130465BE700207E4908700598B2
:104F4000000178498860084645604FF0FF300860EE
:104F5000012048610020C86008610846FEF7ACFEE9
:104F60004FF0FF347448007800287ED1FBF721F918
:104F700045E04FF48040FEF7B9FED8B30198A0EBAE
:104F80000900202822D20198A0EB090000F00300BC
:104F900020B90198A0EB0900800804E00198A0EB7B
:104FA00009008008401C02904FF0000A0AE05C49AA
:104FB0005431DBF8000008600AF1010A0BF1040B20
:104FC00009F1040902988245F1D310E04FF0000A7C
:104FD00006E05BF82A005249543108600AF1010AE0
:104FE000BAF1080FF5D30BF1200B09F120096FF08E
:104FF000404404E0FFE70CB90420F9E6641E484889
:105000000830006840F21A6108400028B1D008203A
:10501000FEF76CFE20B10820FEF73EFE0420E7E616
:105020000220FEF763FE20B10220FEF735FE0220CB
:10503000DEE61020FEF75AFE20B11020FEF72CFE0F
:105040000520D5E64FF40070FEF750FE30B14FF466
:105050000070FEF721FE0720CAE606E0FBF7ABF87A
:1050600040F2FF50FEF718FE41E033480078012877
:105070003DD10020314908702E4908703049087030
:1050800027481030006840F21A3108432449103193
:105090000860402229460698FEF790FE20480068E6
:1050A00040F008001E49086000E0641E25480068C2
:1050B00000F0006008B9002CF7D11CB9FFF77CF8AC
:1050C000042095E64FF0FF3400E0641E1C48007891
:1050D00020B91A48007808B9002CF6D10CB9042080
:1050E00086E61648007810B11448007880E640F251
:1050F000FF50FEF7D1FD04A8FDF7ECF9064603E0EA
:1051000004A8FDF7E7F906463EB99DF81000072808
:10511000F6D09DF810000628F2D0304668E6000070
:105120002C2C01405C0100204000002048010020A0
:105130004400002049000020480000204A000020D0
:105140004B000020006402402DE9FE4F81460C46D2
:10515000924600200290002625462C46700240EA26
:10516000D5566D0209F00300F0B14FF0000B18E0C6
:105170004FF4007249461948FBF765F84FF4007088
:1051800000904FEA4B20471946EBE0733A4613482C
:10519000FFF716FE029009F500790BF1010000F00F
:1051A000FF0BD345E4DB16E0BAF1010F09D14FF450
:1051B00000702A46334600904846FFF701FE0290F1
:1051C00009E04FF400702A463346CDE9000A48460C
:1051D00000F006F802900298BDE8FE8FF001002072
:1051E0002DE9FF5F84B0DDE912470026002003901F
:1051F0000290002580468146019007FB04FBDDF804
:1052000010A0DDF810A0BAF1000F03D1262008B0DD
:10521000BDE8F09F0020DC490860DC4988604860F8
:10522000401E0860012048610020C86008610846EF
:10523000FEF742FDD4481838006800F0007008B14D
:105240000E20E4E7D2480078022808D10402DDE904
:105250000601400A40EAC1504912CDE90601002C7E
:105260001FDDB4F5006F1CDC601E2040C8B920466D
:1052700001F052FC0390C74804601020C549486003
:10528000402088600020C8604FF4806008610846B4
:10529000FEF778FD1020FCF7F7F906461EB1304600
:1052A000B5E72620B3E7012F6FD907FB04F0B0F173
:1052B000007F01D32620AAE7B548007838B1B4486A
:1052C0000078012803D0B248007802282DD1B248D6
:1052D00000880004AF49086037204860402088609B
:1052E0000020C8604FF4806008610846FEF74AFD60
:1052F0003720FCF7C9F906460EB1304687E7A548C6
:1053000007601720A3494860402088600020C860DB
:105310004FF4806008610846FEF734FD1720FCF763
:10532000B3F906460EB1304671E79A49069808600F
:1053300019204860402088600020C8604FF48060D9
:1053400008610846FEF71EFD1920FCF79DF9064688
:105350000EB130465BE7039800018C49886007FB7B
:1053600004F048604FF0FF300860012048610020E1
:10537000C86008610846FEF79FFC8848007800284E
:1053800074D1451EFAF715FF42E0E4E04FF4804087
:10539000FEF7ACFCB8B3ABEB080020281FD2ABEB98
:1053A000080000F0030018B9ABEB0800800803E028
:1053B000ABEB08008008401C01904FF000090AE0A8
:1053C00071495431DAF80000086009F101090AF165
:1053D000040A08F1040801988145F1D310E04FF068
:1053E000000906E05AF8290067495431086009F1BC
:1053F0000109B9F1080FF5D30AF1200A08F12008D4
:105400006FF0404504E0FFE70DB90420FFE66D1E94
:105410005D480830006840F21A3108400028B5D0D5
:105420000820FEF763FC20B10820FEF735FC0420BD
:10543000EDE60220FEF75AFC20B10220FEF72CFC1C
:105440000220E4E61020FEF751FC20B11020FEF708
:1054500023FC0520DBE64FF40070FEF747FC30B17B
:105460004FF40070FEF718FC0720D0E62CE04FF454
:105470008070FEF73BFC00B34548007838B14448E3
:105480000078012803D042480078022815D1002076
:10549000404908600C204860402088600020C860B7
:1054A0004FF4806008610846FEF76CFC0C20FCF7A6
:1054B000EBF806460EB13046A9E6FAF77CFE40F25C
:1054C000FF50FEF7E9FB46E034480078012842D15E
:1054D0000020334908700120324908700020324909
:1054E000087029481030006840F21A3108432649F4
:1054F0001031086007FB04F140220498FEF75EFCBF
:105500002148006840F008001F4908604FF0FF354F
:1055100000E06D1E2548006800F0006008B9002D0D
:10552000F7D11DB9FEF748FE042070E64FF0FF35B5
:1055300000E06D1E1C48007820B91948007808B9B1
:10554000002DF6D10DB9042061E61548007810B1A0
:10555000134800785BE640F2FF50FEF79DFB02A87F
:10556000FCF7B8FF064603E002A8FCF7B3FF0646C7
:105570003EB99DF808000728F6D09DF808000628D7
:10558000F2D0304643E600002C2C01405C010020A4
:105590004000002048010020440000204800002076
:1055A0004A000020490000204B0000200064024017
:1055B00030B500228B071C0F0F2303FA04F20B4BAC
:1055C0008C1053F824309343084C8D1044F8253048
:1055D00023468C1053F824308C07240F00FA04F46F
:1055E0002343024C8D1044F8253030BD083801406B
:1055F0000CB50020019000903448006840F48030E1
:105600003249086000BF3148006800F40030009063
:105610000198401C0190009818B90198B0F5A04F6E
:10562000F1D12A48006800F4003010B10120009048
:1056300001E0002000900098012846D12348403026
:10564000006840F0805021494031086020480068DF
:1056500040F440401E4908601C48083000681B495F
:10566000083108600846006840F4004008600846B9
:10567000006840F4A05008601648091F0860081F21
:10568000006840F08070091F086000BF0F48006884
:1056900000F000700028F9D040F205600E49086063
:1056A0000A480830006820F0030008490831086003
:1056B0000846006840F00200086000BF0348083058
:1056C000006800F00C000828F8D10CBD003802403A
:1056D00000700040086C4007003C02402DE9F0419A
:1056E00005460C46022D21DB00BF3648006800B994
:1056F00019E003F0CDFA4FF47A71B0FBF1F201FB3F
:10570000120603F0C5FA4FF47A71B0FBF1F7324696
:1057100039462DA000F04EFD2FA000F04BFD34A027
:1057200000F048FD00BF00BFBDE8F08115B1012DBC
:1057300044D121E0052C1DD2DFE804F003080D124E
:1057400017000021084600F055F813E01921002049
:1057500000F050F80EE03221002000F04BF809E094
:105760004B21002000F046F804E06421002000F006
:1057700041F800BF00BF21E0052C1DD2DFE804F096
:1057800003080D1217000021012000F033F813E088
:105790001921012000F02EF80EE03221012000F046
:1057A00029F809E04B21012000F024F804E06421ED
:1057B000012000F01FF800BF00BF00BF00BF00BF06
:1057C000B2E70000640000205B443A2025642E25E7
:1057D0003033645D200000006C6564206368616E96
:1057E0006E656C20696E76616C6964210000000052
:1057F0000D0A00002DE9F0412DED0A8B05460E46FD
:105800004FF47A74032D23DB00BF5548006800B9BC
:1058100019E003F03DFA4FF47A71B0FBF1F201FBAD
:10582000120703F035FA4FF47A71B0FBF1F83A46FB
:1058300041464CA000F0BEFC4EA000F0BBFC53A0C3
:1058400000F0B8FC00BF00BFBDEC0A8BBDE8F081E2
:10585000642E20DD00BF4248006800B919E003F063
:1058600017FA4FF47A71B0FBF1F201FB120703F063
:105870000FFA4FF47A71B0FBF1F83A46414639A07D
:1058800000F098FC42A000F095FC40A000F092FCD3
:1058900000BF00BFD8E73046FAF7B6FE41EC1C0B5C
:1058A0009FED400B53EC102BFAF73FFE41EC1A0B27
:1058B0002046FAF7A9FE41EC1B0B53EC1A2BFAF722
:1058C000C2FD41EC190B9FED390B53EC102BFAF78D
:1058D000B4FD41EC180BFAF7A4FE00EE900A00EEBE
:1058E000104AB8EE400A30EE600ABCEEC00A10EE74
:1058F000100A84B215B1012D2ED116E054B9102230
:1059000002212C4802F0C5FD00220221294802F0A4
:105910003FFE09E018220221264802F0BAFD214686
:105920004FF0804000F081FA16E054B910220421B3
:10593000204802F0AEFD002204211E4802F028FE9D
:1059400009E0182204211B4802F0A3FD21464FF074
:10595000804000F06CFA00BF00BF00BF74E7000099
:10596000640000205B443A2025642E253033645DBA
:105970002000000070776D206368616E6E656C209A
:10598000696E76616C696421000000000D0A0000F8
:1059900070776D2076616C20696E76616C69642128
:1059A000000000000000000000005940000000005E
:1059B0000000F03F000002407047000010B515489D
:1059C000006840F47000134908601348006840F014
:1059D00001001149086000200F49083108600E4895
:1059E00000680E4908400C4908600D48091D086010
:1059F000081F006820F48020091F08600020064965
:105A00000C310860FFF7F4FD4FF000600149803968
:105A1000086010BD88ED00E000380240FFFFF6FE90
:105A20001030002410B50121880700F06DF80348FC
:105A3000006810B101480068804710BD38000020A0
:105A400030B589B004460D4601210846FDF7AEF990
:105A5000012211462548FCF777FB01220221234849
:105A6000FCF772FB18220221204802F012FD1822D6
:105A700004211E4802F00DFDA8B2ADF81800002068
:105A8000ADF81A000794ADF8200006A94FF0804049
:105A900000F0D0F96020ADF804000120ADF8060058
:105AA0000220ADF8100001A9400700F005F9082117
:105AB000C80600F053F96020ADF804000120ADF8ED
:105AC00006000220ADF8100001A9400700F054F9CB
:105AD0000821C80600F0A0F90121880700F008F8A5
